S018000050726F6A6563744469676974616C494F2E73726563DF
S214080000902B0720491A0800451A0800451A0800C8
S214080010451A0800451A0800451A0800000000009E
S214080020000000000000000000000000451A08005C
S214080030451A080000000000451A0800451A08007E
S214080040451A0800451A0800451A0800451A080007
S214080050451A0800451A0800451A0800451A0800F7
S214080060451A0800451A080000000000B5180800E0
S214080070C9180800DD180800F1180800000000007C
S21408008000000000B5010800451A0800451A0800D7
S214080090451A0800451A0800451A0800451A0800B7
S2140800A0451A080000000000451A0800451A08000E
S2140800B0451A0800451A0800451A0800451A080097
S2140800C0451A0800451A0800451A0800451A080087
S2140800D0451A0800451A0800451A0800451A080077
S2140800E0451A0800451A0800451A0800451A080067
S2140800F0451A080010B5054C237833B9044B13B1DC
S2140801000448AFF300800123237010BD9C09072024
S21408011000000000F04E080008B5064B1BB1064864
S2140801200649AFF300800648036813B1054B03B1D0
S214080130984708BD00000000F04E0800A0090720F8
S214080140F04E0800000000002DE9F0410C469046ED
S21408015060B9002A0EDD8F18094E0A4D3068214610
S2140801602B6898470134BC42F8D106E04FF0FF30C0
S214080170BDE8F0810020BDE8F0814046BDE8F0818A
S214080180840B0720000B0720436913F0020F1DBFDE
S214080190C1F30801C161002001207047436913F0CC
S2140801A0010F05D08369C3F308030B60002070476E
S2140801B00120704700B583B011480DF107010122F0
S2140801C0104B984772B6BFF35F8F00220E4B1A701B
S2140801D00E4B1B789DF807100D4AD1549B2B03D164
S2140801E000220A4B1A7002E00133084A13700122F3
S2140801F0054B1A70BFF35F8F62B603B05DF804FB59
S21408020000800940A90E08002C010720540A072080
S214080210B809072002290ED10D2805D1064B4FF044
S21408022000621A601A617047162804D1024B4FF014
S21408023080621A601A61704700100E4001290DD1BD
S2140802400D2804D14FF000620C4B1A63704716282D
S21408025012D14FF08062094B1A63704761B90D28B6
S21408026004D14FF00062054B5A637047162803D135
S2140802704FF08062014B5A63704700BF00100E4073
S2140802802DE9F0410546B0F1004F32D15F4B1868B2
S21408029082689368013B9360002B1DDA8268916838
S2140802A09369994212DB13682D221A70574B186807
S2140802B08268136819780A2902D0013313604FE060
S2140802C00A21534B98474FF0004549E02D21504BE3
S2140802D098474FF0004543E083681B682D221A7044
S2140802E04A4B1B689B681A6801321A604FF0004533
S2140802F036E0002834DA454B186882689368013B74
S2140803009360002B19DA826891689369994210DB2A
S21408031013682D221A703D4B18688268136819787E
S2140803200A2902D00133136011E00A21384B984796
S2140803300DE02D21364B984709E083681B682D226F
S2140803401A70324B1B689B681A6801321A606D4235
S21408035006E004EB84035B009C4206DA1C4600E0D9
S2140803600124B5FBF4F3092BF3D8284E294FDFF800
S214080370A080306882689368013B9360002B29DA76
S214080380826891689369994217DB1168B5FBF4F3A4
S214080390A7FB0302D20802EB8202A3EB4203303328
S2140803A00B7030688268136819780A2902D00133FE
S2140803B0136021E00A21C0471EE0B5FBF4F3A7FB53
S2140803C003E1C90801EB8101A3EB41013031C9B251
S2140803D0C04711E083681968B5FBF4F3A7FB03026E
S2140803E0D20802EB8202A3EB420330330B70336869
S2140803F09B681A6801321A60074B83FB0423E417CC
S214080400C4EBA304002CB4DCBDE8F081600507202B
S214080410E52B0800CDCCCCCC676666662DE9F8439C
S21408042006460C465E4B186882689368013B9360E4
S214080430002B19DA826891689369994210DB136871
S21408044030221A70564B18688268136819780A2979
S21408045002D00133136011E00A21524B98470DE091
S2140804603021504B984709E083681B6830221A7081
S2140804704B4B1B689B681A6801321A60484B186811
S21408048082689368013B9360002B1BDA8268916848
S2140804909369994210DB136878221A70404B1868E3
S2140804A08268136819780A2902D00133136006E0B7
S2140804B00A213C4B984702E078213A4B984764B9A2
S2140804C0BDE8F88383681B6878221A70344B1B686B
S2140804D09B681A6801321A60F1E7314DDFF8C4905C
S2140804E04FF00A08013CE4B2A30026FA03F303F02F
S2140804F00F03092B28D8286881688A68013A8A6019
S214080500002A17DA826891689769B9420EDB126882
S2140805103033137028688268136819780A2902D05D
S2140805200133136038E04146C84735E003F130012F
S214080530C84731E082681268303313702B689B68AE
S2140805401A6801321A6027E0286881688A68013AC2
S2140805508A60002A17DA826891689769B9420EDBC2
S21408056012683733137028688268136819780A295E
S21408057002D0013313600FE04146C8470CE003F190
S2140805803701C84708E082681268373313702B684B
S2140805909B681A6801321A60002CA3D1BDE8F8835C
S2140805A060050720E52B0800F8B5002800F00A814A
S2140805B00378002B00F00681441C834D834E844F3D
S2140805C0A3F12002D2B25E2A2AD8286882689368E5
S2140805D0013B9360002B18DA826891689369994208
S2140805E00FDB136814F8012C1A70286882681368E1
S2140805F019780A2902D001331360DEE00A21B847C9
S214080600DBE014F8011CB847D7E083681B6814F8C9
S214080610012C1A702B689B681A6801321A60CCE0A5
S2140806200D2B4ED1286882689368013B9360002B97
S21408063016DA82689168936999420EDB13685C2221
S2140806401A7028688268136819780A2902D0013354
S21408065013600EE00A21B8470BE05C21B84708E0B3
S21408066083681B685C221A702B689B681A680132BC
S2140806701A60286882689368013B9360002B16DA34
S21408068082689168936999420EDB136872221A7021
S21408069028688268136819780A2902D0013313601B
S2140806A08BE00A21B84788E07221B84785E083685E
S2140806B01B6872221A702B689B681A6801321A60C7
S2140806C07BE00A2B4ED1286882689368013B9360CA
S2140806D0002B16DA82689168936999420EDB1368D4
S2140806E05C221A7028688268136819780A2902D06A
S2140806F0013313600EE00A21B8470BE05C21B847C7
S21408070008E083681B685C221A702B689B681A6866
S21408071001321A60286882689368013B9360002B50
S21408072016DA82689168936999420EDB13686E221E
S2140807301A7028688268136819780A2902D0013363
S21408074013603AE00A21B84737E06E21B84734E02C
S21408075083681B686E221A702B689B681A680132B9
S2140807601A602AE0286882689368013B9360002B29
S21408077016DA82689168936999420EDB13685C22E0
S2140807801A7028688268136819780A2902D0013313
S21408079013600EE00A21B8470BE05C21B84708E072
S2140807A083681B685C221A702B689B681A6801327B
S2140807B01A6014F8010C0221B04714F8013B002B0C
S2140807C07FF4FEAEF8BD00BF600507201D040800D4
S2140807D0E52B080038B50D46464B9847464B186833
S2140807E08468A268013AA260002A19DA82689368C7
S2140807F091698B4210DB13683A221A703E4B1868D0
S2140808008268136819780A2902D00133136011E048
S2140808100A213A4B98470DE03A21384B984709E0A9
S21408082083681B683A221A70334B1B689B681A68E1
S21408083001321A602846324B98472F4B1868826850
S2140808409368013B9360002B19DA82689168936974
S214080850994210DB13683A221A70274B1868826888
S214080860136819780A2902D00133136011E00A21A7
S214080870224B98470DE03A21204B984709E08368B9
S2140808801B683A221A701C4B1B689B681A68013250
S2140808901A601C4B5868174B9847174B186882689D
S2140808A09368013B9360002B19DA82689168936914
S2140808B0994210DB13683A221A700F4B1868826840
S2140808C0136819780A2902D00133136038BD0A2143
S2140808D00A4B984738BD3A21084B984738BD836875
S2140808E01B683A221A70044B1B689B681A68013208
S2140808F01A6038BDA905080060050720E52B080022
S21408090081020800040B072008B50146194B186831
S214080910194B984719481A4B98471A4B1868826813
S2140809209368013B9360002B19DA82689168936993
S214080930994210DB13683A221A70124B18688268BC
S214080940136819780A2902D00133136008BD0A21F2
S2140809500D4B984708BD3A210B4B984708BD83684E
S2140809601B683A221A70074B1B689B681A68013284
S2140809701A6008BD040B0720D5070800244C080099
S214080980A905080060050720E52B080038B50546C8
S21408099020B10348034CA0472846A04738BD00BFEF
S2140809A0184C0800A90508002DE9F04707468846B0
S2140809B020254FF00044434E4FF05809DFF808A1B1
S2140809C03C4252D014EA080F27D0306882689368F1
S2140809D0013B9360002B16DA826891689369994206
S2140809E00EDB136831221A7030688268136819782B
S2140809F00A2902D0013313605EE00A21D0475BE083
S214080A003121D04758E083681B6831221A70336852
S214080A109B681A6801321A604EE0306882689368EC
S214080A20013B9360002B16DA8268916893699942B5
S214080A300EDB136830221A703068826813681978DB
S214080A400A2902D00133136036E00A21D04733E082
S214080A503021D04730E083681B6830221A7033682C
S214080A609B681A6801321A6026E0306882689368C4
S214080A70013B9360002B16DA826891689369994265
S214080A800EDB136883F8009030688268136819785C
S214080A900A2902D0013313600EE00A21D0470BE082
S214080AA04946D04708E083681B6883F80090336897
S214080AB09B681A6801321A606408013D80D1BDE857
S214080AC0F08700BF60050720E52B080008B5024838
S214080AD0024B984708BD00BF244C0800A90508002B
S214080AE008B50248024B984708BD00BF144C0800DA
S214080AF0A905080008B5244BDB6923B1224B5A69BF
S214080B0001325A610FE0204B9B6943B91E4B1868A7
S214080B1099681E4B98471E481E4B984703E01A4B89
S214080B201A6901321A61184B00229A61DA611A4B67
S214080B30186882689368013B9360002B19DA82680C
S214080B4091689369994210DB13680A221A70124B4F
S214080B5018688268136819780A2902D00133136066
S214080B6008BD0A210D4B984708BD0A210B4B98472C
S214080B7008BD83681B680A221A70074B1B689B68A7
S214080B801A6801321A6008BD040B0720D50708004A
S214080B90704C0800A905080060050720E52B08002A
S214080BA02DE9F84305460F4616469846124CA469A2
S214080BB0FCB9114AD269E2B981EA0603034218D0A1
S214080BC008980E4B98470E48DFF84890C8472846BE
S214080BD039460C4CA0470C48C84728463146A0471B
S214080BE040460A4B98470448012181612030084B4B
S214080BF09847BDE8F88300BF040B072009090800DA
S214080C002C4C0800A90908001C4C08008D0908008F
S214080C108D1D0800A905080000B583B001900E4890
S214080C2041608260C3680133C36020300B4B98472D
S214080C3018B90B4B9847019B98470A48074B9847A3
S214080C4020B9054BDB690BB9074B9847074B984704
S214080C5003B05DF804FB00BF040B0720811D0800E5
S214080C60C90F0800240B0720D90F0800F50A08004A
S214080C70054B186000225A609A60DA601A615A6159
S214080C809A61DA61704700BF040B072070B5664B9F
S214080C90186882689368013B9360002B19DA8268AB
S214080CA091689369994210DB13680A221A705E4BA2
S214080CB018688268136819780A2902D00133136005
S214080CC011E00A21594B98470DE00A21574B9847DF
S214080CD009E083681B680A221A70534B1B689B68D6
S214080CE01A6801321A605248524B98474E4B186899
S214080CF082689368013B9360002B19DA82689168D2
S214080D009369994210DB13680A221A70464B1868D2
S214080D108268136819780A2902D00133136011E033
S214080D200A21424B98470DE00A21404B984709E0B4
S214080D3083681B680A221A703B4B1B689B681A68F4
S214080D4001321A603C4EF0683C4DA8473C48394C86
S214080D50A0473069A8473B48A0477069A8473A4863
S214080D60A047314B186882689368013B9360002B54
S214080D7019DA826891689369994210DB13680A2227
S214080D801A70294B18688268136819780A2902D0DD
S214080D900133136011E00A21244B98470DE00A211D
S214080DA0224B984709E083681B680A221A701E4B74
S214080DB01B689B681A6801321A601F4B1B6913B9B7
S214080DC0224B984701E0224B9847174B18688268D1
S214080DD09368013B9360002B19DA826891689369DF
S214080DE0994210DB13680A221A700F4B186882683B
S214080DF0136819780A2902D00133136011E00A2112
S214080E000A4B98470DE00A21084B984709E0836883
S214080E101B680A221A70044B1B689B681A68013202
S214080E201A60054B186970BD60050720E52B080099
S214080E30384C0800A9050800040B072081020800A2
S214080E40684C0800504C08005C4C0800E10A080092
S214080E50CD0A08002DE9F0410E461546013802284D
S214080E600FD892B10024DFF83C800D4FD8F8000068
S214080E70315D3B68984700280ADB0134A542F5D166
S214080E800AE04FF0FF30BDE8F0810020BDE8F081B1
S214080E904FF0FF30BDE8F0812046BDE8F08100BF86
S214080EA0800B0720840B07202DE9F04F83B00546FA
S214080EB09046002A47D04E1C254F264CDFF8A8A09F
S214080EC0DFF894B006F1FF3900230193224B9D42C8
S214080ED006D158464946214B98470028F9D119E0CB
S214080EE01F4B9D4209D19946484601A9A0470028AC
S214080EF0FAD1019B06F8013C17E01A4B9D4209D12E
S214080F009946484601A9A0470028FAD1019B06F849
S214080F10013C14E0554508D1504601A9A0470028D1
S214080F20FAD1019B06F8013C09E0BD4207D13846D4
S214080F3001A9A0470028FAD1019B06F8013C013612
S214080F40B8F10108BED1002003B0BDE8F08F00BF9D
S214080F5000400A409D01080000080E40B50F080032
S214080F600080094000C0094000000A4010B4AC23C5
S214080F7003600A684B68B2FBF3F31B095C1E4FF666
S214080F80FE7294420AD803628B68436040F20223DA
S214080F90C0F8203150230360002000E001205DF8EF
S214080FA0044B7047436913F0020F1ABFC161002053
S214080FB001207047436913F0010F1DBF83690B704A
S214080FC000200120704700BF4FF0FF32014B1A6027
S214080FD0704700BF04100E404FF0FF32014B1A60F6
S214080FE0704700BF04100E4010B582B00D200221D5
S214080FF00C4B98470C4B1A68342300934FF000604C
S2140810004FF0FF31094B0A4CA0470A4B1A683523A4
S21408101000934FF000604FF0FF31074BA04702B037
S21408102010BD00BF1502080008100E40784C0800D6
S214081030A10B080018100E40904C080010B582B09E
S2140810400D200221094B98470D200121084B98478F
S214081050084B1A683D2300934FF000604FF0FF31AD
S2140810600023054CA04702B010BD00BF15020800BB
S2140810703D02080038100E40A10B080010B582B0DB
S2140810800D2002210A4B98470D200121094CA04744
S2140810900D200021A047084B1A68472300934FF0FD
S2140810A0006000210B46054CA04702B010BD00BFEB
S2140810B0150208003D02080038100E40A10B080073
S2140810C010B582B016200221074B9847074B1A68BE
S2140810D04D2300934FF080604FF0FF310023044CFF
S2140810E0A04702B010BD00BF1502080018100E4039
S2140810F0A10B080010B582B016200221094B9847AC
S21408110016200121084B9847084B1A68532300936A
S2140811104FF080604FF0FF310023054CA04702B027
S21408112010BD00BF150208003D02080038100E402A
S214081130A10B080010B582B0162002210A4B98476A
S21408114016200121094CA04716200021A047084B6D
S2140811501A685B2300934FF0806000210B46054C0D
S214081160A04702B010BD00BF150208003D020800E7
S21408117038100E40A10B080030B583B00D200221B0
S2140811800D4CA04716200221A0470C4D2A68632361
S21408119000934FF080604FF0FF31094B094CA04791
S2140811A02A68642300934FF000604FF0FF31064B27
S2140811B0A04703B030BD00BF1502080018100E4047
S2140811C0A84C0800A10B0800904C080030B583B066
S2140811D00D200221104CA04716200221A0470D2002
S2140811E001210E4CA04716200121A0470C4D2A6865
S2140811F06E2300934FF080604FF0FF31094B0A4C86
S214081200A0472A686F2300934FF000604FF0FF3125
S214081210064BA04703B030BD150208003D02080083
S21408122038100E40C04C0800A10B0800D44C08002B
S21408123070B582B00D2002211B4CA0471620022153
S214081240A0470D200121194EB04716200021B047AF
S214081250174D2A687A2300934FF000604FF0FF314D
S2140812600023144CA0472A687B2300934FF0806025
S21408127000210B46A0470D200021B047162001216B
S214081280B0472A687F2300934FF0006000210A4B7E
S214081290A0472A68802300934FF080604FF0FF3104
S2140812A0064BA04702B070BD150208003D020800B4
S2140812B038100E40A10B0800E84C0800C04C080087
S2140812C0F0B583B004460D46002301931F4B9842A1
S2140812D007D11F461E4E38462946B0470028FAD181
S2140812E019E01C4B984209D11F461B4E384601A9E7
S2140812F0B0470028FAD1019B2B7019E0174B98428B
S21408130009D11E46144C304601A9A0470028FAD138
S214081310019B2B7018E0124B9C4209D11E460E4CBE
S214081320304601A9A0470028FAD1019B2B700BE094
S2140813300C4B9C4208D11E46074C304601A9A047D4
S2140813400028FAD1019B2B7003B0F0BD00080E40B0
S214081350B50F0800008009409D01080000C009403C
S21408136000000A4000400A4070B50C46214B9842DF
S21408137007D11E46204D30462146A8470028FAD1F8
S2140813802BE01E4B984207D11E461D4D304621467F
S214081390A8470028FAD122E01A4B984207D11E46E1
S2140813A0174D30462146A8470028FAD119E0164BB3
S2140813B0984207D11E46124D30462146A8470028B7
S2140813C0FAD110E0114B98420FD11E460C4D30460C
S2140813D02146A8470028FAD109E0012070BD01205F
S2140813E070BD012070BD012070BD002070BD0120B9
S2140813F070BD00BF00080E40A50F08000080094019
S2140814008901080000C0094000000A4000400A4060
S21408141030B585B02C4B98472C4B984708202C4D58
S214081420A8472C4C2C4B1C602C4A2D4B1A602D4A76
S2140814302D4B1A602D4B01934FF4E13302934FF472
S214081440006303930820A847204601A9284B98471D
S214081450284D2B6898680021274CA0472B685868A9
S2140814600021A0472548264CA0472648A0472648DE
S214081470264B9847264827490A22274CA04727483C
S21408148027490F22A047274827491222A04727485E
S21408149027491422A047274827491922A047274842
S2140814A027491C22A047274827491E22A047274825
S2140814B027492322A047274827492622A047274B03
S2140814C09847002005B030BD61150800C51508000E
S2140814D0ED19080000080E40840B07206913080061
S2140814E0800B0720C1120800000B072000BD01056D
S2140814F06D0F080060050720711D0800F84C0800ED
S214081500B51C0800084D0800184D0800710C0800A6
S214081510E90F0800304D0800190C08003D100800B7
S214081520584D08007D100800744D0800C1100800CA
S214081530944D0800F5100800BC4D08003511080049
S214081540D84D080079110800F84D0800CD1108009C
S214081550244E080031120800444E08008D0C08007E
S21408156010B50E480E4B984700203E210D4B984765
S2140815700D4CA0470028FCD00C4B98470C4A0D4B46
S2140815809A620D4CA0470028FCD010200B4B9847B9
S2140815900B4B98470148024B984710BD00BD010504
S2140815A0A500072069190800BD190800CD1908000C
S2140815B0013F0D2000060E40DD1908000519080039
S2140815C0F91A080010B54FF40042164B5A600B2063
S2140815D0154CA0470C20A0470D20A0470E20A0477A
S2140815E03B204FF06051114CA04755204FF06051FA
S2140815F0A04756204FF06051A04768200C49A047E6
S2140816005C200C49A0470C484FF440710B4A0C4B21
S21408161098472B204FF00061A0472A204FF0006122
S214081620A04710BD501A0E40ED190800E91608002C
S2140816307900002801000028000E0E40010000086E
S214081640BD1708004264B1F1805F16D004D8C1B156
S214081650B1F1006F0AD013E0B1F1405F11D0B1F1DB
S214081660605F0ED0B1F1205F0AD17047036F016F3B
S2140816700B4023EA0203036702E0036F1343036782
S21408168042607047416412F0010F14BF416601665C
S21408169012F00A0F14BF0162416212F0020F02D064
S2140816A0C0F8801004E012F0080F18BFC0F88410C5
S2140816B041610160704700BF10B44164019C0CB1E1
S2140816C0416600E001660BB1016500E041650AB1BC
S2140816D0016300E04163016101605DF8044B7047F7
S2140816E0C06C7047806C704770B582B00D46440970
S2140816F004F5001404F20774660201F0F044B4F12D
S214081700205F30D006D8B4F1006F0AD0B4F1805FFD
S21408171018D049E0B4F1405F30D0B4F1605F2DD006
S21408172042E000F01F000124844030464FF000617C
S21408173022461F4B984715F0010F14BF746634668F
S214081740012032E000F01F000124844030464FF0AC
S21408175080512246164B984715F0010F14BF746641
S2140817603466012021E000F01F010124304604FA07
S21408177001F12A460F4B9847204616E000F01F0155
S214081780012405F0605205EA04030093304604FA83
S21408179001F1B2F1605F14BF00220122C5F3800395
S2140817A0054DA847204600E0002002B070BD00BFE7
S2140817B04516080085160800B9160800F0B583B067
S2140817C007460E46154602F0F044B4F1205F26D0D0
S2140817D006D8B4F1006F0AD0B4F1805F13D034E0B5
S2140817E0B4F1405F1FD0B4F1605F1CD02DE04FF01D
S2140817F000613246164B984715F0010F14BF7E66F7
S2140818003E66012022E04FF080513246104B984742
S21408181015F0010F14BF7E663E66012016E00D4BDC
S2140818209847012012E005F0605205F00103009386
S21408183038463146B2F1605F14BF00220122C5F374
S2140818408003054CA047012000E0002003B0F0BD4F
S2140818504516080085160800B91608002DE9F04157
S21408186004460E46104B9847054620460F4B9847A9
S214081870054017D00E4F07F10C046C3754F80C3C93
S214081880B3420AD154F8081C294206D023683046C9
S214081890984754F8083C25EA0305BC4202D01034A1
S2140818A0002DEBD1BDE8F081E1160800E51608002A
S2140818B0580A072008B502480B21024B984708BD6E
S2140818C0000E0E405D18080008B502480C21024BB1
S2140818D0984708BD00100E405D18080008B5024875
S2140818E00D21024B984708BD00120E405D180800EF
S2140818F008B502480E21024B984708BD00140E4052
S2140819005D180800174B1A6B22F070021043186314
S2140819109B6E13F0080F09D14FF40063114901E0DC
S214081920013B19D08A6E12F0080FF9D00D4B1A6BCE
S21408193022F0030242F002021A63986E10F00800C2
S2140819400CD14FF40063074901E0013B08D08A6ECA
S21408195012F0080FF9D07047012070470020704732
S2140819600120704700060E4038B111490B6A114A2B
S2140819701A40114B13430B6270470D4A136A23F43F
S2140819805C1323F0030343F45C1343F001030902DA
S21408199089B20B431362936E13F0010FFBD0044A0F
S2140819A0136A43F09B7343F480331362704700BF97
S2140819B000060E40FCFFC8FE02003701024B986E78
S2140819C000F48030704700BF00060E404FF000520B
S2140819D0014B9A62704700BF00060E40024B986E95
S2140819E000F00200704700BF00060E402C2820D8E2
S2140819F01F280DD8124B9A69012383401A40934238
S214081A0019D0012303FA00F00D4B18610020704727
S214081A100B4BD3F808212038012383401A40934201
S214081A200BD0012303FA00F0054BC3F80001002091
S214081A30704701207047002070470020704700BF9D
S214081A4000060E40FEE700BF10B51E4B1E4A9A421F
S214081A5003D01E4B1B4A9A4204D31D4B1D4A9A427A
S214081A600FD31AE01C4B1D4CE41A24F0030404346C
S214081A700023144814495A581A500433A342FAD17A
S214081A80EBE7174B1749C91A21F003011A1D114431
S214081A90002243F8042F8B42FBD1134A22F06043FE
S214081AA023F07F0311498B6002F16042B2F5801F74
S214081AB003D28A6842F000528A600D4B98470D4B55
S214081AC09847FEE700000720F04E08009C0907200C
S214081AD08C0B07209C090720040007209F09072075
S214081AE098090720870B07200000080000ED00E093
S214081AF0651C0800111408003E4B1B6B03F003031B
S214081B00032B5FD8DFE803F0020E2B2B3A4B5B69FA
S214081B1013F0800F14BF4FF400424FF4FA42374BCD
S214081B201A604FE0334B1B6A13F0807F03D0344AA9
S214081B30324B1A6046E0334A304B1A602D4B1B6A0C
S214081B4003F07003102B02D0202B04D03AE02E4A64
S214081B502A4B1A6036E02A4A284B1A6032E0254B90
S214081B601B6A13F0807F03D0254A244B1A6012E0C4
S214081B70244A224B1A601F4B1B6A03F07003102B73
S214081B8002D0202B04D006E01F4A1C4B1A6002E045
S214081B901B4A1A4B1A60174B1B6B03F00303022BE6
S214081BA00DD1144B986A996A144BC0F30A401A6808
S214081BB000FB0222C9B2B2FBF1F21A6002E0134A35
S214081BC00E4B1A600B4B1B6B03F07003702B07D180
S214081BD00A4B1A680E49A1FB020252081A6070479F
S214081BE0044B196B054BC1F302111A68CA401A60F8
S214081BF0704700BF00060E40101A0E40300107203E
S214081C00001BB70000093D0000127A00001C4E0EAB
S214081C10ABAAAAAA094B1B6813B9094A074B1A604C
S214081C20064B1B681A180749914204DB1046034AFC
S214081C301060184670474FF0FF307047C80A0720F4
S214081C40902B0720FC7F08204FF0FF30704700BF1E
S214081C504FF400534B600020704700BF01207047C8
S214081C600020704770B50F4E0F4D761BB61007D084
S214081C70043D0024013455F8043F9847A642F9D19C
S214081C800A4E0B4D03F01EF9761BB61008D0043D1D
S214081C900024013455F8043F9847A642F9D170BD90
S214081CA070BD00BFD04E0800D04E0800D84E0800C1
S214081CB0D04E08000FB410B5074B82B004AC54F8E9
S214081CC0042B186823468168019400F023F902B0B3
S214081CD0BDE8104004B0704760050720F0B48407DC
S214081CE043D0541E002A3ED0CDB2034603E0621EFF
S214081CF0002C38D0144603F8015B9A07F7D1032C5A
S214081D002AD9CDB245EA05250F2C45EA054515D949
S214081D10A4F110073F0903F1100606EB07161A464A
S214081D20156055609560D5601032B242F8D104F05F
S214081D300F040137032C03EB07130DD91E46224662
S214081D40043A032A46F8045BFAD8221F22F0030254
S214081D500432134404F003042CB1C9B21C4403F83B
S214081D60011BA342FBD1F0BC704714460346C6E7E6
S214081D7000290CBF022200224FF4806300F00EB840
S214081D80EC46A0E8F05F4FF000007047B0E8F05F60
S214081D90E546080008BF0120704700BF2DE9F0415E
S214081DA03C4D04462D68884616461F4615B1AB6B53
S214081DB0002B4FD0022E30D8002F2EDB2846214687
S214081DC001F07AF8A38900226260A2611A0628D474
S214081DD023F083039BB2022EA3812DD0B8F1000F07
S214081DE03CD0012E13D09BB203F008002A4A80B2DA
S214081DF0EA63C4F80080C4F81080676178B113F00D
S214081E00030F18BF0027A7600020BDE8F08143F045
S214081E1001037A42A381A261E5E74FF0FF30BDE8EF
S214081E20F0812846216901F0A7F9A389022E23F03C
S214081E3083039BB2A381D1D1002004F1430243F06F
S214081E40020300250121A381A56022602261616149
S214081E50BDE8F081284601F04BF8ABE7002F08BF35
S214081E604FF48067384601F07DFC804628B1A38988
S214081E7043F080039BB2A381B3E74FF4806001F080
S214081E8071FC804618B9A3894FF0FF30D5E74FF4A8
S214081E908067ECE760050720E52E08004B6E2DE905
S214081EA0F0479C040E46804691462AD593681268E9
S214081EB002F1080A1BB31AE9A000BF0817D0043DB0
S214081EC0002401E0A74210D0404655F8041F3246C9
S214081ED001F0A4F8431C04F10104F3D10023C9F867
S214081EE00830C9F80430BDE8F087D9F80830A3EB05
S214081EF08703C9F808300AF1080A002BDBD100204E
S214081F00ECE701F005FA0023C9F80830C9F80430F0
S214081F10BDE8F0872DE9F04FB1B01C460291904617
S214081F200893069018B1836B002B00F0E880029D9A
S214081F30AB899AB2900407D46A6E43F4005322F42D
S214081F400051AB819AB26966110740F1B780DDF897
S214081F5008B0DBF81030002B00F0B08002F01A0250
S214081F600A2A00F0B78000230DF180090A9315931A
S214081F7014930993CDF84C904E4698F80030002BF1
S214081F8000F0C884252B00F0C58408F1010201E0A2
S214081F90252B04D0137814460132002BF8D1C8EB51
S214081FA0040595B1149B159A01332A44072BC6F8E5
S214081FB000807560159214937BDD002A40F0D58466
S214081FC00998149228444E4609902378002B00F06E
S214081FD0ED8300214FF000024FF0FF3C63788DF848
S214081FE0472004918A4604F101080846654608F128
S214081FF00108A3F12002582A00F2D982DFE812F07D
S214082000CB02D702D702D202D702D702D702D7020C
S214082010D702D70282028F02D70284009302D70221
S2140820202B01960196019601960196019601960156
S21408203096019601D702D702D702D702D702D7024F
S214082040D702D702D702D7023001D702D702D70263
S214082050D702D702D702D702D702D702D7027B0108
S214082060D702D702D702D702D702A401D702D702CF
S214082070BF01D702D702D702D702D702D702D702A4
S214082080D702D702D702E401FA01D702D702D7024D
S2140820901602FA01D702D7021B02D70228028900C5
S2140820A066027D02D7023A02D7021901D702D70282
S2140820B0AF02083609982844099086E706980299D8
S2140820C000F0E4FDB0B9029DAA8902F01A020A2AB5
S2140820D07FF449AFDDF808B0BBF90E30002BFFF6E9
S2140820E042AF069859464246234600F03DFD31B0B9
S2140820F0BDE8F08F4FF0FF3031B0BDE8F08F00F04C
S214082100F7FE14E7404208934AF0040A98F80030AD
S2140821106DE71AF020030490AC4600F0F480DDF872
S21408212020B00BF1070323F0070303F10804089413
S214082130D3E9004500234FF0000000218DF8470042
S214082140CDF814C00791BCF1000FA8BF2AF0800A8A
S21408215054EA050240F0AD80BCF1000F40F0A980BB
S214082160002B40F0C0831AF0010F00F0BC83302328
S21408217030AF07F8413DC7EB09040594DDF814B005
S214082180079CE345B8BFE346CDF80CB01CB10BF18D
S214082190010BCDF80CB01AF00205079505D0DDF84E
S2140821A00CB00BF1020BCDF80CB01AF084030B93AD
S2140821B040F01B82049DDDF80CB0CBEB0504002C28
S2140821C040F31382102C40F38984BE4D159A2B4693
S2140821D0149825464FF0100B6446B4461E4606E093
S2140821E0831C0CF1080C0846103D102D11DD411C0F
S2140821F01032072915928CE840081491F0DD002A61
S21408220040F0E681103D102D4FF001031046CC46F5
S214082210EDDC31466646A4462C460D462244072B7E
S214082220159235607460149300F36D830836591C54
S214082230DEE11AF0200F0490AC4600F08D80089D71
S214082240EB1D23F0070303F1080BD3E90045CDF88F
S21408225020B001236FE74AF0800A98F80030C6E6F7
S2140822604AF0100A1AF0200F0490AC468DF8471072
S21408227000F0C880089CE11D21F00701D1E9002381
S2140822800831089114461D46002A73F1000BC0F267
S214082290CE83BCF1000F9DF84700A8BF2AF0800A3D
S2140822A054EA05020790CDF814C04FF001033FF436
S2140822B053AF012B00F01983022B0DF17F0340F07A
S2140822C04C82DDF828B0194604F00F0022091BF8E6
S2140822D0000042EA05722B09087052EA03000F460E
S2140822E014461D4601F1FF31EED1CDE90E23C7EBAA
S2140822F00903059342E74AF0100A1AF020030490EF
S214082300AC467FF40CAF1AF0100240F011831AF0B6
S214082310400300F00D83DDF820B01346BBF80040FC
S2140823200BF1040B0025CDF820B004E7A3F130022A
S214082330002018F8013B00EB800002EB4000A3F1F8
S2140823403002092AF5D954E64AF0100A1AF0200F86
S2140823500490AC467FF473AF1AF0100F40F0EF828B
S2140823601AF0400F00F0EB82DDF820B00025BBF82D
S21408237000400BF1040B0123CDF820B0DBE6AC4699
S214082380514D1AF0200F04908DF847100A9500F06A
S214082390F080089DEA1D22F0070202F1080BCDF82E
S2140823A020B0D2E900451AF0010F00F0AA8254EADC
S2140823B0050B00F0A68230228DF849304AF0020A52
S2140823C08DF848200223B6E6089BDDF820B01B6887
S2140823D001244FF000050BF1040B049003948DF8CC
S2140823E047508DF85830CDF820B0059416AF4FF00A
S2140823F0000CD0E61AF0200F0490AC468DF8471073
S2140824007FF438AF1AF0100F40F0A7821AF0400F8A
S21408241000F0A382DDF820B0BBF900400BF1040BF6
S214082420E51722462B46CDF820B02DE74AF0400A9D
S21408243098F80030DBE598F8003042466C2B03BF6E
S21408244008F101084AF0200A53784AF0100ACEE547
S2140824501AF0200F8DF8471000F0F782089C2168C4
S214082460099CE5172B46089D224604350895C1E9C0
S214082470002382E5089CAC4627684FF000050490C8
S2140824808DF847500434002F00F03283BCF1000F5B
S2140824903846C0F2078362460021CDF804C001F032
S2140824A005FCDDF804C0002800F03A83C01B9DF840
S2140824B047506045A8BF60460590089407954FF0BA
S2140824C0000C5BE6B44E0800744E0800089BDDF866
S2140824D020B00490B2481C68302278230BF1040B15
S2140824E0AC468DF849304AF0020ACDF820B00025EF
S2140824F08DF848200A9002231DE64AF0200A98F82C
S214082500003074E5DDF820B0DBF800000BF10403BA
S2140825100028FFF6F7AD089398F8003067E598F8B6
S21408252000302B2163E598F8003008F101042A2BC7
S21408253000F00583A3F13002092A98BF002500F2AF
S214082540FA8214F8013B05EB850502EB4505A3F175
S2140825503002092AF5D945EAE575A04649E5904CC2
S2140825601AF0200F0490AC460A948DF847107FF4B2
S21408257010AF1AF0100F40F0EA811AF0400F00F082
S214082580E681DDF820B00025BBF800400BF1040B0F
S214082590CDF820B007E798F8003000297FF427AD7B
S2140825A0202124E54AF0010A98F800301FE5049037
S2140825B08DF84710002B00F0F98001254FF0000B2E
S2140825C003958DF858308DF847B0059516AF0EE789
S2140825D00698029913AAFFF761FC002840F0ED80E0
S2140825E01498159A431CCC46FEE5149B159A591C5C
S2140825F09DF8470068B101320DF14700012307290D
S2140826001592149186E8090000F360810B46083697
S2140826100131079C64B1023212A8022307291592D9
S214082620149186E8090000F357810B4608360131F5
S2140826300B9D802D00F00181059DC5EB0C04002C38
S2140826402FDD102C574D22DD30464FF0100B2E464E
S2140826502546069C06E003F1020C08300B46103DA2
S214082660102D10DD591C10320729159280E84008F5
S2140826701491F0DD002A63D1103D102D4FF0010CA7
S21408268013464846EEDC2C46614635460646224446
S2140826900729159235607460149100F3C1800836D6
S2140826A00131059D07292A441592376075601491F3
S2140826B040F3C180002A40F0308114924E461AF04A
S2140826C0040F00F08B80049DDDF80CB0CBEB0504FE
S2140826D0002C40F38380102C40F31E821499324D50
S2140826E01027DDF818A0DDF808B005E0881C0836C5
S2140826F01946103C102C10DD4B1C1032072B159277
S21408270086E8A0001493F1DD002A7DD1103C102C39
S2140827104FF0010011464E46EEDC2244072815927B
S21408272035607460149059DD002A4FD1099CDDF895
S2140827300CB0049DAB45ACBF5C44641909945EE0DC
S2140827402046029913AAFFF7A9FB002835D1149B47
S214082750159A03F1010C484681E7E00840EA4570FF
S21408276004F00702E908303250EA010B1F461A70D7
S21408277004460D4603F1FF33EFD11AF0010FCDE9F9
S2140827800C01394600F0B980302A3FF4F4AC1F46F5
S214082790C7EB09053023059501F8013CEEE400BFB8
S2140827A0884E0800A44E0800B44E0800159B23B1B6
S2140827B00698029913AAFFF771FB029CA3895B0689
S2140827C03FF598AC099831B0BDE8F08F06980299A5
S2140827D013AAFFF763FB0028EFD1159A099CDDF8CA
S2140827E00CB0049DAB45ACBF5C446419099432B187
S2140827F00698029913AAFFF751FB0028DDD100209E
S21408280014904E46FFF7B9BB5046594613AAFFF731
S21408281045FB0028D1D11499159A481C4E4668E7FE
S214082820002A40F0F780059C0123209721941594F0
S214082830224614934E46083641E7049DDDF80CB050
S214082840CBEB0504002C7FF7F7AE102CA64D40F313
S214082850708129464FF0100B25466446B4460E464E
S21408286006E0981C0CF1080C0B46103D102D0FDDE9
S214082870591C1032072915928CE840081491F0DD8F
S214082880BAB9103D102D4FF001001346CC46EFDCC8
S21408289033466646A4462C461D462244072815920B
S2140828A035607460149000F3AF800836411C034608
S2140828B0C2E60698029913AAFFF7F0FA00287FF4F2
S2140828C07CAF149B159A581CCC46CEE7002A79D1C3
S2140828D019464E4613469CE6002A40F0848001219D
S2140828E013464E46A4E64F4648E4002D08BF0A2C79
S2140828F046D2303430AF07F8414DC7EB090305938D
S2140829003CE4022317E4002A40F0AF801346012176
S2140829104E466DE64446FFF758BB0698029913AA3A
S214082920FFF7BCFA00287FF448AF159A4E46C6E66D
S214082930089D2C68043508950025FFF7FCBB089D04
S21408294001232C68043508950025FFF7F4BB089D7D
S2140829502C6804350895002525E5089D2C6804355F
S2140829600895E51722462B468EE40698029913AA80
S214082970FFF794FA00287FF420AF4E46FFF79ABB7D
S2140829800DF17F0B03965E46E346204629460A224B
S214082990002301F05FFE30323270204629460A22B4
S2140829A0002301F057FE04460D4654EA0500374654
S2140829B006F1FF36E9D1C7EB0903DC46039E05930B
S2140829C0FFF7DCBB0698029913AACDF804C0FFF7F8
S2140829D065FADDF804C000287FF4EFAE149B159A5C
S2140829E0591C4E4615E60698029913AACDF804C057
S2140829F0FFF754FADDF804C000287FF4DEAE149B17
S214082A00159A591C4E4613E6002A56D1012113463C
S214082A104E4611E60698029913AAFFF73FFA0028D1
S214082A207FF4CBAE1499159A01314E4639E64FF02D
S214082A302D0B644265EB45058DF847B0CDF81CB004
S214082A40CDF814C00123FFF77EBB1AF0100F1DD176
S214082A501AF0400F58D0089DDDF824B02B680435CE
S214082A600895A3F800B0FFF788BA0698029913AA43
S214082A70CDF804C0FFF712FADDF804C000287FF48A
S214082A809CAE149B159A591C4E46B1E5DDF820B04D
S214082A90099CDBF800300BF1040BCDF820B01C6065
S214082AA0FFF76BBA089401F05FFC9DF84740059065
S214082AB007944FF0000CFFF761BB0698029913AA1B
S214082AC0CDF804C0FFF7EAF9DDF804C000287FF463
S214082AD074AE149B159A591C4E46ADE5149B159A70
S214082AE00133024DFFF79ABBA44E0800B44E080007
S214082AF0BCF1060F34BF63460623089423EAE37442
S214082B0005930394164F72E4089C099D23680434C1
S214082B1008941D60FFF731BA1498124D0130FCE591
S214082B209DF84750CDF814C0079508948446FFF7DB
S214082B3025BB0846B1E6A0460025FFF75ABADDF8D9
S214082B4020B098F80130DBF800500BF10402002D95
S214082B500892A046BFF64BAA4FF0FF35FFF747BAD4
S214082B609C4E0800B44E08002DE9F0474F6EADF5B0
S214082B708D6D88461997D8F81C70B1F80CA0B1F876
S214082B800E900797D8F824701AAC4FF480652AF090
S214082B90020A002669460094049402950595ADF845
S214082BA00CA0ADF80E90099706960546FFF7B2F901
S214082BB0041E07DB2846694600F07EF9B04218BFB7
S214082BC04FF0FF34BDF80C305B0605D5B8F80C306E
S214082BD043F04003A8F80C3020460DF58D6DBDE88F
S214082BE0F08700BFF8B50D461446074610B1836B4C
S214082BF0002B48D0A289A06993B2A060180738D5E0
S214082C002669002E35D09904EDB215D52368626979
S214082C109E1B96421CDA0136A268591C013AA2602D
S214082C2021601D706369B3421AD0A389DB0701D5FA
S214082C300A2D15D02846F8BD636E42F4005223F4D8
S214082C40005363662368A28162699E1B9642E2DB94
S214082C503846214600F030F940B923680126DBE7FC
S214082C603846214600F028F90028E3D04FF0FF3018
S214082C70F8BD3846214600F009F80028F6D1A289A2
S214082C80266993B2BFE700F033F9B3E72F4B70B568
S214082C90064618680C4610B1826B002A36D0A589FD
S214082CA0ABB219070CD52269AAB113F001011ED0E0
S214082CB0636900215B42A361A160F2B1002070BD88
S214082CC0DA063AD55B0724D4226945F00803A381BF
S214082CD09BB2002AE9D103F42071B1F5007FE4D055
S214082CE03046214600F0CEFCA3892269DDE7980726
S214082CF058BF6169A160002AE0D1A3891A06DDD50C
S214082D0043F04003A3814FF0FF3070BD00F0F0F8A9
S214082D10C5E7216B49B104F14003994203D0304618
S214082D2000F02AFAA58900232363226925F02405E2
S214082D300021ADB222606160C7E745F0400509236F
S214082D4033604FF0FF30A58170BD00BF60050720D7
S214082D50024B13B1024800F005B8704700000000A7
S214082D60ED2F0800014600200246034601F076BB18
S214082D708B892DE9F0419AB20D46110780463CD45E
S214082D806A6843F40063002AAB8159DDAC6A002CFC
S214082D904BD09BB203F48052002192B2D8F8006060
S214082DA0C8F80010002A4FD02A6D5F0705D5696855
S214082DB02B6B521A0BB1EB6BD21A4046E96900230B
S214082DC0A047441C4AD0AB892A6923F400639BB207
S214082DD000212A60DA04AB8169604CD4296BC8F8F4
S214082DE0006011B305F14003994202D0404600F056
S214082DF0C3F900202863BDE8F0812E69AEB19107BB
S214082E002C680CBF6B6900232E60A41BAB600AE01D
S214082E10324623466F6A4046E969B8470028C0EB41
S214082E200404064404DD002CF2DC0020BDE8F08132
S214082E30AB894FF0FF3043F04003AB81BDE8F0812B
S214082E40EA6B002AA2DCF0E701234046E969A047BE
S214082E50431C02461ED0AB89AC6AA6E7D8F80030F9
S214082E605BB9AA89296922F4006292B26B60D3041E
S214082E70AA812960B2D52865B0E71D2B01D0162B8C
S214082E8013D1A9892B6921F400610022A9812B603E
S214082E906A60A3E7D8F80030002BDCD01D2B01D0E1
S214082EA0162BC5D1C8F80060BFE7AB8943F04003CE
S214082EB0AB81BDE8F08100BF10B5044682B008B10A
S214082EC0836B53B1B1F90C0008B902B010BD2046A7
S214082ED002B0BDE81040FFF74BBF019100F008F8BC
S214082EE00199EFE7014900F09FBB00BFA94508001C
S214082EF02DE9F04F846B83B00746002C65D17D68BA
S214082F0033480423032107F53B72F863C7F8E41235
S214082F10C7F8E822C7F8E04205F15C00AB812C60F0
S214082F206C60AC606C66EC812C616C61AC612146AF
S214082F300822FEF7D3FEDFF89CB0BE68DFF898A03C
S214082F40DFF89890DFF8988001230922ED61C5F82C
S214082F5020B0C5F824A0C5F82890C5F82C802146CE
S214082F60F381B28134607460B460746634617461ED
S214082F70B461082206F15C000193FEF7AFFEFD6817
S214082F8012200222F661C6F820B0C6F824A0C6F8B9
S214082F902890C6F82C802146A881EA812C606C60AF
S214082FA0AC606C662C616C61AC6105F15C00082253
S214082FB0FEF794FE019BED61C5F820B0C5F824A085
S214082FC0C5F82890C5F82C80BB6303B0BDE8F08F21
S214082FD0E52E0800E54208000943080041430800BA
S214082FE061430800704700BF704700BF38B5094DF9
S214082FF0094C641BA41018BF05EB840505D0013CDA
S21408300055F8043D9847002CF9D1BDE8384001F042
S21408301063BF00BFE44E0800E84E08002DE9F04103
S21408302093890F46990482B01446804606D4526E99
S21408303043F4005342F40052A381626600F01CFB7E
S21408304001283ED03A46404601A904F15C0301F047
S214083050BBF9421C06462DD000283AD09DF804102D
S214083060002509E0236819702368013323600135B9
S214083070B5422ED201ABE95CA368013B002BA360E6
S214083080F0DAA269934206DB236819702368197878
S21408309001330A29EAD140462246FFF7A3FDB0F1DC
S2140830A0FF33584258410028E1D04FF0FF3002B0B5
S2140830B0BDE8F081A38943F04003A38102B0BDE8D0
S2140830C0F0817B1EFE2BBDD8F9B206468DF804109B
S2140830D0C6E7384602B0BDE8F08100BFF8B5234D14
S2140830E00F46044600F008FFAB685E6826F0030645
S2140830F0F11B01F6EF7121F47F6121F00F01A1F5B4
S2140831008057B7F5805F07DB2046002101F0D8F826
S214083110AB683344984204D0204600F0EFFE002007
S214083120F8BD2046794201F0CBF801300DD0104B9F
S214083130AA681968F61B46F001062046C91B5660A1
S214083140196000F0DBFE0120F8BD2046002101F0E2
S214083150B7F8AB68C21A0F2ADEDD064D04492D689B
S21408316042F00102401B5A600860D5E78805072030
S214083170D80A0720940907202DE9F0410D4606468F
S214083180002955D000F0B8FE55F8041CDFF870C1C9
S214083190A5F1080421F00103E218DCF808005768D6
S2140831A0904227F0030768D011F00101576032D02B
S2140831B00021D0194068C00706D43B44906800290F
S2140831C04DD0D268C260906043F001026260E3505E
S2140831D0E1B9B3F5007F2DD35A0A042A69D89809AD
S2140831E0383041000CEB810CDCF808204449624575
S2140831F065D0516821F003018B4202D2926894454B
S214083200F7D1D368E360A2609C60D4603046BDE81E
S214083210F04100F073BE55F8085C0CF10808641B12
S214083220A0682B44404542D0E568C560A860C0E762
S214083230BDE8F081DB089A1001209040DCF8041005
S2140832400CEBC3039A680143A260E360CCF8041051
S21408325030469C60D460BDE8F04100F04FBE294D72
S214083260A842AED143F00102CCF81440CCF8104086
S214083270E060A0606260E350C8E71F44CB0707D44D
S21408328055F8081C641AE368A2680F44D3609A606D
S2140832901D4B47F001021B6862609F42CCF808404D
S2140832A0B4D31A4B30461968FFF718FFAEE701216A
S2140832B07FE7142A0BD802F15B00410092E78010E2
S2140832C00125854048681346284348609AE7542AEB
S2140832D003D8180B6E30410084E7B2F5AA7F03D8EE
S2140832E0D80B773041007DE740F254518A4203D824
S2140832F0980C7C30410075E7FC217E2072E700BF01
S214083300880507209005072090090720D40A07207B
S2140833102DE9F04F936883B0164681460C462BB3CA
S2140833208B89190726D5226922B303F0020292B2C6
S2140833303568002A2CD04FF0000ADFF8E8B2D046ED
S214083340D84534BF43465B4652464846B8F1000F58
S2140833504FD0E169676AB847002856DDB3688244EB
S2140833601B1AC0EB0808B360002BE9D1002003B095
S214083370BDE8F08F48462146FFF788FC002840F055
S2140833804881A389356803F0020292B2002AD2D196
S21408339013F0010A42D1D046B8F1000F23D09A059F
S2140833A0A76876D5B845C0F0A48013F4906F40F0AF
S2140833B0B2802068BB4651465A4600F037FDA268E0
S2140833C02168D21B01EB0B03A26023604246B36858
S2140833D092449B1AC2EB0808B360002BC6D0A38998
S2140833E0B8F1000FDBD1D5F800A0D5F80480083571
S2140833F0D2E7D5F800A0D5F804800835A0E74846F7
S2140834002146FFF759FD002859D0A38943F0400309
S2140834104FF0FF30A38103B0BDE8F08F92460192CB
S21408342093469046B8F1000F2BD0019F002F64D02A
S21408343020682169C24534BF5346434688421F4622
S214083440D4F808C0626903D99444634500F3AE8093
S214083450934236DB1346676A4846E1695A46B847D8
S214083460071ED2DDBAEB070A3AD0B368BB44DB1BAB
S214083470C7EB0808B360002B3FF478AFB8F1000F2D
S214083480D3D10027D5F800B0D5F8048001970835C1
S214083490C8E720682369984202D86369984572D2BB
S2140834A0B84538BF47463A46514600F0BFFCA368C1
S2140834B02268DB1B3A44A3602260002B9FD03A4662
S2140834C085E71A465946009300F0B0FC009BA168B1
S2140834D02268C91ABAEB070A1344A1602360C4D14C
S2140834E048462146FFF7E8FC00288ED1CDF804A010
S2140834F0BBE720684746C3465DE758460A2142466A
S21408350000F0D4FB00287FD000F1010A0127CBEB9E
S2140835100A0A01978CE7226821696769C1EB020CE1
S21408352007EB47070CF1010207EBD77742447F10F9
S214083530974234BF17463A465B054FD5114648466C
S214083540CDF800C000F016F9DDF800C08346002864
S21408355062D062462169CDF800C000F0F1FBA2896E
S214083560DDF800C022F4906242F08002A2810BEBE4
S2140835700C00CCEB0702C4F810B067612060A260AC
S2140835804746C34617E76FF00042904538BF4246A5
S21408359092FBF3F202FB03F3676A4846E169524678
S2140835A0B84700287FF731AF024610E7624659460B
S2140835B0CDF800C000F03AFCDDF800C023684846A5
S2140835C0634423602146CDF800C0FFF775FCDDF89C
S2140835D000C000287FF419AF674643E74846CDF891
S2140835E000C000F08DFCDDF800C083460028BED180
S2140835F048462169FFF7C0FDA3890C2223F0800303
S2140836009BB2C9F8002001E7012708F1010A0197D3
S2140836100EE74FF0FF30AAE60C23C9F80030A3895E
S214083620F4E600BF00FCFF7F2DE9F04110F538777F
S214083630884619D000267D68BC68013D0ED4A3894B
S214083640013D012B06D9B4F90E302046013301D0CE
S214083650C04706436B1C04F16804F0D13F68002F8E
S214083660E9D13046BDE8F0813E463046BDE8F081F7
S2140836700048704764050720014B1868704700BF6C
S21408368084050720F0B58B8991B09AB296070C4648
S214083690054637D4B1F90E10002917DB01AA00F049
S2140836A08BFF002810DB029B03F47043B3F5005130
S2140836B04F424F41B3F5004F2CD0A3894FF4806694
S2140836C043F40063A3810BE0A3899AB212F0800F3B
S2140836D043F40063A38114BF40264FF48066002796
S2140836E02846314600F046F8A389002829D01B4A08
S2140836F043F08003EA63A381206020616661A7B96E
S21408370011B0F0BD01F1430301220B600B614A6161
S21408371011B0F0BD124AA36A9342CED1A3894FF4E2
S21408372080663343A381E664DAE72846B4F90E10C8
S21408373000F056FF0028E3D0A38943F00103A381D5
S214083740DEE79A05DCD404F1430243F002030121C4
S214083750A381226022616161D2E700BFE52E0800DE
S21408376041430800024B0146186800F003B800BF42
S214083770600507202DE9F04F01F10B05162D83B0E3
S214083780064627D935F0070527D4A94225D8304656
S21408379000F0B2FBB5F5FC7F26D2C14F4FEAD50C38
S2140837A007EBCC03DC689C4200F0D2816368E268D1
S2140837B023F0030323445868A16840F00105CA6053
S2140837C0304691605D6000F099FB0834204603B0EF
S2140837D0BDE8F08F1025A942D9D900240C2320462D
S2140837E0336003B0BDE8F08F5FEA552C00F089809F
S2140837F0BCF1040F00F260814FEA951C0CF1380CFE
S2140838004FEA4C01A64F07EB8101CC68A14205D1CF
S2140838100CE0002B79DAE468A14207D0626822F04F
S2140838200302531B0F2BF4DD0CF1FF3C0CF1010CCB
S2140838309B4B3C6903F1080E744500F07E81616875
S21408384021F003014A1B0F2A00F36481002AC3F8FB
S21408385014E0C3F810E069DAB1F5007F80F03A8129
S214083860C9088A104FF0010808FA02F803EBC101EC
S2140838705A68886848EA0202A060E1605A608C606C
S214083880C4604FEAAC030120984090425BD80242DD
S21408389006D12CF0030C400002420CF1040CFAD0BE
S2140838A007EBCC084446E146E3689C4207D146E16C
S2140838B0002A80F25781DB689C4200F040815968F4
S2140838C021F003014A1B0F2AF2DD1C4654F808CFE4
S2140838D0D96845F0010942F001081D44C3F8049070
S2140838E03046CCF80C10C1F808C07D613D61C5F8BB
S2140838F00CE0C5F808E0C5F80480AA5000F0FEFA07
S21408390064E77E214FF03F0C7CE722445068E3686A
S214083910A16840F00105CB6030469960556000F01C
S214083920EDFA0834204603B0BDE8F08F21444B6812
S214083930304643F001034B6000F0E0FA08342046B6
S21408394003B0BDE8F08FBC68636823F00309A94597
S21408395004D3C5EB09030F2B00F39180514B524A51
S2140839601968136805EB010A013304EB090B00F02C
S21408397061810AF5805A0AF10F0A2AF47F6A2AF04A
S2140839800F0A30465146019200F09AFCB0F1FF3F0C
S2140839908046019A00F00181834500F2FB80DFF83B
S2140839A014C1C345DCF800305344CCF8003000F0AE
S2140839B04A8112683C4901321BBFCBEB080B5B44BB
S2140839C0C1F80080CCF8003018F0070300F0148126
S2140839D0C3F10802C3F5805390440833C244CAF3BF
S2140839E00B0ACAEB030A51463046CDF804C000F06D
S2140839F067FC431CDDF804C000F03581C8EB000204
S214083A00524442F00102DCF80030BC425344C7F886
S214083A100880CCF80030C8F80420DFF898A015D045
S214083A20B9F10F0F40F2EB806168A9F10C0222F0A1
S214083A30070201F0010142EA010E0520A1180F2A2B
S214083A40C4F804E04860886000F21181174ABC6830
S214083A5011688B4288BF1360154A11688B4288BF6D
S214083A601360626822F003029542C5EB020301D890
S214083A700F2B04DC304600F041FA0024A6E645F099
S214083A80010243F00103254462603046BD606B6066
S214083A9000F034FA0834204603B0BDE8F08F00BFC3
S214083AA088050720D40A072094090720D00A07208B
S214083AB0CC0A0720D80A0720BCF1140F61D9BCF13C
S214083AC0540F00F28F804FEA153C0CF16E0C4FEA4B
S214083AD04C0197E64B0A042B58D9142B00F2AD80FC
S214083AE003F15B02500007EB80008368DFF8B881BB
S214083AF0834200F08A805A6822F00302914202D27A
S214083B009B689842F7D1D9687A68E160A3608C60B0
S214083B10DC60B6E645F0010742F00101254467601F
S214083B2030465D611D61C5F80CE0C5F808E06960BF
S214083B30AA50083400F0E2F948E65A68A1E609F106
S214083B40010919F0030F04F108047FF4ADAE2DE067
S214083B5004F108036469A34208BF0CF1020C3FF4A1
S214083B6067AE23E6194448681C4654F8082FDB68F5
S214083B7040F001054D603046D3609A6000F0BEF90B
S214083B8024E60CF15B0C4FEA4C013BE68A09383216
S214083B905000A8E7BC423FF402AFBC68626822F057
S214083BA0030261E7D8F8008098457AD11CF0030F25
S214083BB0A8F108030CF1FF3CF4D17B6823EA000364
S214083BC07B60400098423FF6BEAE00283FF4BBAE8E
S214083BD00342CC467FF464AE400003420CF1040C6A
S214083BE0FAD05DE6BCF5AA7F19D84FEAD53C0CF1A9
S214083BF0770C4FEA4C0105E64FF48053EEE60123B6
S214083C00C8F80430444600222EE79210012090405F
S214083C10D8F8042019460243C8F8042075E740F28D
S214083C2054539C451BD84FEA954C0CF17C0C4FEA34
S214083C304C01E7E50AF1100AA3E6542B1FD80A0B35
S214083C406E3250004FE7CBF30B0100297FF4B1AE7C
S214083C500AEB0901BA6841F001015160F6E6FC2159
S214083C604FF07E0CCEE501224FF0000ACBE604F1B9
S214083C7008013046FFF780FADAF80030E6E6B3F5D2
S214083C80AA7F03D8CA0B773250002CE740F254526A
S214083C90934203D88A0C7C32500024E7FC207E220C
S214083CA021E77B688DE700BF88050720830770B487
S214083CB0C9B240D0541E2AB303788B4223D0431C83
S214083CC004E0FCB1057814468D421CD013F0030FAF
S214083CD0184604F1FF3203F10103F2D1032C14D87D
S214083CE0651E54B303788B420DD0421C002302E0B5
S214083CF004788C4207D0AB42104603F1010302F168
S214083D000102F5D1002070BC704741EA012603463F
S214083D1046EA06461A6818467240A2F1013525EAB0
S214083D20020212F0803F03F10403D9D1043C032CAD
S214083D301846EFD8D4E71446D0E72046E3E700BF96
S214083D40844641EA000313F0030349D1403A23D3DB
S214083D500B6803604B6843608B688360CB68C360FE
S214083D600B6903614B6943618B698361CB69C361E6
S214083D700B6A03624B6A43628B6A8362CB6AC362CE
S214083D800B6B03634B6B43638B6B8363CB6BC363B6
S214083D9040304031403ADBD230320BD30B680360F8
S214083DA04B6843608B688360CB68C3601030103103
S214083DB0103AF3D20C3205D351F8043B40F8043BD2
S214083DC0043AF9D2043208D0D2071CBF11F8013BD6
S214083DD000F8013B01D30B8803806046704700BF9C
S214083DE0082A13D38B07B1D010F00303AED0C3F163
S214083DF00403D21ADB071CBF11F8013B00F8013B8D
S214083E00A4D331F8023B20F8023B9FE7043AD9D303
S214083E10013A11F8013B00F8013BF9D20B78037020
S214083E204B7843708B788370604670478842F0B44E
S214083E3010D98C18A0420DD28518531E42B12146BF
S214083E402A4611F8014D013B02F8014D5C1CF8D1D9
S214083E50F0BC70470F2A44D940EA01039B0744D1B7
S214083E60A2F110073F0900EB071610360C4603466A
S214083E702568103343F8105C6568103443F80C5C0A
S214083E8054F8085C43F8085C54F8045C43F8045C8F
S214083E90B342EDD17B1C02F00F0C1B01BCF1030FE3
S214083EA01944034423D90E461D46644656F8047B37
S214083EB0043C032C45F8047BF8D8ACF1040424F041
S214083EC00304043402F0030223442144002ABFD02A
S214083ED01A4411F8014B03F8014B9342F9D1F0BC90
S214083EE070470346002AF3D1B2E70346F0E7624676
S214083EF0002AEDD1ACE700BF704700BF704700BF8F
S214083F002DE9F04F0C4683B090468146002900F014
S214083F10BA80FFF7F1FF08F10B0654F8043C162E9A
S214083F2023F00305A4F108074BD810210E46B04528
S214083F304CD88D4251DADFF884B37819DBF808E0FC
S214083F40864500F0A680426822F0010C8444DCF81E
S214083F5004C01CF0010F54D000221046DB076FD4B3
S214083F6054F8083CC3EB070ADAF8043023F00303D6
S214083F702B44002862D0704500F0E98002EB030E5F
S214083F808E455BDBC3688268D046D3609A6058F873
S214083F90081FDAF80C302A1F242ACB60996000F232
S214083FA02381132A40F2B08023681B2ACAF80830F7
S214083FB06368CAF80C3000F22B8108340AF1100343
S214083FC0A3E026F00706002E3146B0DA0C230020C0
S214083FD0C9F8003003B0BDE8F08FA046AA1B0F2A28
S214083FE003F001031AD82B437B603D446B6843F00B
S214083FF001036B604846FFF781FF404603B0BDE803
S214084000F08F22F0030202EB050C8C45A6DBC26893
S2140840108168A046CA6065469160DFE7B9193343F0
S21408402042F001007B600A4448605368083143F058
S214084030010353604846FFF79FF8DBE78B4233DA05
S21408404041464846FFF796FB80460028D2D054F8EB
S214084050043CA0F1080123F001023A44914200F022
S214084060BC802A1F242A6ED8132A42D80346224622
S214084070116819605168596092689A6021464846E6
S214084080FFF77AF8B6E7114603B0BDE8F04FFFF73A
S21408409071BBDEF8042006F1100C22F0030250195A
S2140840A060453DDA704659E7D04658F8080FDAF802
S2140840B00C102A1F242AC160886000F2A080132AE8
S2140840C040F29B8021681B2ACAF808106168CAF863
S2140840D00C1000F2B28008340AF1100221681D465E
S2140840E01160616857465160A3689360DAF8043037
S2140840F074E723681B2A03606368436062D800F18C
S214084100080304F10802B3E74346226875461A60B6
S214084110626857465A60A2689A60DAF804305DE723
S214084120831B374443F00103CBF808707B6054F8D0
S214084130043C484603F001031E4344F8046CFFF7AA
S214084140DDFE20465AE72146FFF770FE96E702EBAB
S214084150030C06F110029445FFF670AF574657F861
S214084160081FDAF80C302A1F242ACB60996000F260
S2140841708680132A77D923681B2ACAF8083063680A
S214084180CAF80C3000F2848008340AF1100322685A
S2140841901A6062685A60A2689A60C6EB0C020AEB5C
S2140841A0060342F00102CBF808305A60DAF8043009
S2140841B0484603F001031E43CAF80460FFF79EFE54
S2140841C038461BE7A368242A8360E368C3602BD0BD
S2140841D000F1100304F110024AE750F8042CA04638
S2140841E022F003021544F9E621464046754657462E
S2140841F0FFF71CFEDAF80430F0E642466EE7214682
S21408420040461D465746FFF711FEDAF80430E5E645
S214084210A368242ACAF81030E368CAF8143018D0FD
S21408422010340AF1180370E7226900F118030261D6
S214084230616904F1180241611AE7A168242ACAF8DC
S2140842401010E168CAF814100FD010340AF11802DA
S21408425044E722690AF12003CAF81820626918346C
S214084260CAF81C2051E73B4691E721690AF120026B
S214084270CAF8181061691834CAF81C102EE72146C7
S2140842803846CDF804C0FFF7D1FDDDF804C084E752
S214084290A368242ACAF81030E368CAF8143003D092
S2140842A010340AF1180372E722690AF12003CAF8E3
S2140842B0182062691834CAF81C2068E788050720A1
S2140842C038B5074C0023054608462360FDF7A2FCD0
S2140842D0431C00D038BD2368002BFBD02B6038BDAC
S2140842E0880B072010B50C46B1F90E1000F09EF9A1
S2140842F0002803DB236D0344236510BDA38923F43C
S2140843008053A38110BD00BF2DE9F0410C46898972
S2140843101D46CB051646074606D5B4F90E100022EC
S214084320022300F06FF9A18921F48051A181384653
S214084330B4F90E1032462B46BDE8F04100F07AB8C4
S21408434010B50C46B1F90E1000F05CF9A389421CB2
S2140843500EBF23F4805343F480532065A38110BD19
S214084360B1F90E1000F0CEB820F0030110F00300EB
S214084370C0F1000051F8043B00F1040C4FEACC0CE5
S2140843806FF000021CBF22FA0CF213434FF0010C28
S2140843904CEA0C2C4CEA0C4CA3EB0C0222EA030267
S2140843A012EACC1204BF51F8043B0430F4D013F0E0
S2140843B0FF0F1FBF013013F47F4F013013F47F0F38
S2140843C018BF0130704700BF2DE9F0411E4686B081
S2140843D00C46054617460F4B91B1D3F80080FFF7F9
S2140843E047F90096034621463A462846C047431CE6
S2140843F003D100228A2332602B6006B0BDE8F08124
S2140844001F68FFF735F9009603462246284603A993
S214084410B847ECE79809072021B1FF2A04D80A70A4
S21408442001207047084670478A2303604FF0FF3024
S214084430704700BF70B5084C06460025084611466A
S2140844401A462560FCF706FD431C00D070BD23689D
S214084450002BFBD0336070BD880B0720F0B5274CC7
S21408446085B026680746D6F84841002C40D06568CF
S2140844701F2D1EDD224818B94FF0FF3005B0F0BDDD
S2140844804FF4C870039102920193FFF76BF90399F2
S2140844900446029A019B0028EED0D6F84851002020
S2140844A0256060600546C6F84841C4F88801C4F827
S2140844B08C013FB96B1C00200235636044F8251058
S2140844C005B0F0BD0126AE4004EB8500C0F8882094
S2140844D0D4F88821022F42EA0602C4F88821C0F8D8
S2140844E00831E7D1D4F88C311E43C4F88C61E1E773
S2140844F006F5A674C6F84841B9E700BF704E08002E
S2140845006537080038B5074C00230546084623607B
S214084510FDF79AFB431C00D038BD2368002BFBD060
S2140845202B6038BD880B072070B50C46054631B1A0
S21408453010B1836B002B2FD0B4F90C300BB90020C8
S21408454070BD28462146FEF7B7FCE36A064633B137
S2140845502846E16998470028B8BF4FF0FF36A38978
S2140845601B061CD4216B41B104F14003994202D0CA
S2140845702846FEF701FE00232363616C21B1284616
S214084580FEF7FAFD00236364FEF72CFD0023A381E3
S214084590FEF72AFD304670BDFEF7AAFCCCE7284693
S2140845A02169FEF7E9FDDDE7024B01461868FFF7CB
S2140845B0BBBF00BF6005072038B5084C002305467A
S2140845C0084611462360FDF743FB431C00D038BD60
S2140845D02368002BFBD02B6038BD00BF880B072054
S2140845E038B5074C0023054608462360FDF736FB1A
S2140845F0431C00D038BD2368002BFBD02B6038BD89
S214084600880B072070B5084C064600250846114654
S2140846101A462560FDF724FB431C00D070BD2368AE
S214084620002BFBD0336070BD880B072070B5084C94
S21408463006460025084611461A462560FBF784FDFF
S214084640431C00D070BD2368002BFBD0336070BDC0
S214084650880B07204BB942B9002908BF002802D0AA
S2140846604FF0FF31084600F03BB882B0EC462DE923
S214084670005000F01DF8DDF804E002B00CBC7047EE
S2140846802DE9704F089E14461D468046894600F060
S21408469029F804FB01F3A4FB00AB00FB05329344A6
S2140846A0B8EB0A0869EB0B09C6E90089BDE8708F04
S2140846B02DE9704F089E14461D468046894600F030
S2140846C061F900FB05F5A0FB04AB04FB0154A34409
S2140846D0B8EB0A0869EB0B09C6E90089BDE8708FD4
S2140846E0704700BF00292DE9F00FC0F2A180002412
S2140846F0002BC0F29880154606460F46002B3FD181
S2140847008A4258D9B2FA82F34BB1C3F1200201FAB1
S21408471003F720FA02F29D4000FA03F61743290C25
S214084720B7FBF1F201FB1277A8B200FB02F34FEADF
S214084730164C4CEA0747BB4209D97F1902F1FF3CE1
S21408474080F00581BB4240F20281023A2F44FF1AEC
S214084750B7FBF1F301FB137100FB03F0B6B246EAB0
S2140847600141884208D9491903F1FF3780F0F180E2
S214084770884240F2EE80023B43EA0242002303E00E
S2140847808B420AD900231A461046194614B14042ED
S21408479061EB4101BDE8F00F7047B3FA83F8B8F152
S2140847A0000F40F088808B4202D3824200F2E280FB
S2140847B000230122E8E712B90123B3FBF2F5B5FAA4
S2140847C085F2002A3AD17F1B280C1FFA85FC0123A4
S2140847D0B7FBF0F100FB11770CFB01F24FEA164825
S2140847E048EA0747BA4207D97F1901F1FF3802D2CB
S2140847F0BA4200F2C4804146BF1AB7FBF0F200FB8B
S21408480012700CFB02FCB6B246EA0040844507D993
S214084810401902F1FF3702D2844500F2AE803A46CC
S21408482042EA0142B0E7E443524263EB430362E7DD
S214084830404261EB41014FF0FF3459E79540C2F121
S214084840200927FA09F126FA09F99740280CB1FB3E
S214084850F0F800FB18111FFA85FC0CFB08F349EA70
S21408486007094FEA194747EA01418B4206FA02F65A
S21408487008D9491908F1FF327AD28B4278D9A8F1BB
S21408488002082944C91AB1FBF0F300FB13170CFB06
S21408489003F21FFA89F949EA0747BA4207D97F1986
S2140848A003F1FF3160D2BA425ED9023B2F44BF1AE9
S2140848B043EA08438CE7C8F1200225FA02F103FA16
S2140848C008FC27FA02F320FA02F207FA08F741EA88
S2140848D00C0C4FEA1C49B3FBF9F109FB11331FFA1C
S2140848E08CFA0AFB01FB17433A0C42EA03439B4542
S2140848F005FA08F008D913EB0C0301F1FF3235D29C
S2140849009B4533D902396344CBEB0303B3FBF9F277
S21408491009FB12330AFB02FABFB247EA0347BA4555
S21408492008D917EB0C0702F1FF331BD2BA4519D981
S214084930023A674442EA0145A5FB0001CAEB0707AD
S2140849408F424FF000030AD305D02A461CE762467A
S214084950FDE63B4610E706FA08F68642F5D26A1EDA
S214084960002311E71A46E5E70B46A0E71146CBE712
S214084970904687E74346424606E7023A50E702393A
S2140849802F4439E72DE9F00F144605460E46002B4E
S21408499043D18A4253D9B2FA82F757B1C7F12006F3
S2140849A020FA06F601FA07F302FA07F400FA07F502
S2140849B01E43210CB6FBF1F201FB1266A0B200FB07
S2140849C002F32F0C47EA0646B34209D9361902F114
S2140849D0FF3780F0FD80B34240F2FA80023A264460
S2140849E0F61AB6FBF1F301FB136100FB03F0ADB258
S2140849F045EA0141884208D9091903F1FF3680F0D3
S214084A00E980884240F2E680023B43EA02420023FD
S214084A1010461946BDE8F00F70478B424CD8B3FADB
S214084A2083F6002E4FD18B4202D3824200F2DD80FD
S214084A30BDE8F00F0023012210461946704712B948
S214084A400124B4FBF2F4B4FA84F2002A40F082801F
S214084A50091B260CA7B20123B1FBF6F006FB1011C2
S214084A6007FB00F24FEA154C4CEA01418A4207D987
S214084A70091900F1FF3C02D28A4200F2C88060465B
S214084A80891AB1FBF6F206FB121107FB02F7ADB264
S214084A9045EA0145AF4208D92C1902F1FF3180F0EA
S214084AA09B80A74240F29880023A42EA00421046AB
S214084AB01946BDE8F00F704700231A4610461946F7
S214084AC0BDE8F00F7047C6F1200522FA05F703FA8D
S214084AD006F421FA05F301FA06FB20FA05F53C432D
S214084AE04FEA1448B3FBF8FC08FB1C331FFA84F99A
S214084AF009FB0CFA45EA0B0B4FEA1B4545EA03434C
S214084B009A4502FA06F204D91B190CF1FF356FD341
S214084B10AC46CAEB0303B3FBF8F508FB153309FBF1
S214084B2005F91FFA8BFB4BEA0347B94504D93F1929
S214084B3005F1FF3362D31D4645EA0C4CACFB022355
S214084B40C9EB07079F424FF000054AD346D0624696
S214084B502B465DE79440C2F1200921FA09FC9140F2
S214084B6020FA09F9260CBCFBF6F806FB18CCA7B207
S214084B7007FB08F349EA01094FEA194141EA0C4CD8
S214084B80634500FA02F509D91CEB040C08F1FF325C
S214084B903BD2634539D9A8F10208A444C3EB0C0CF0
S214084BA0BCFBF6F306FB13C107FB03F21FFA89F9F1
S214084BB049EA01418A4207D9091903F1FF3022D28E
S214084BC08A4220D9023B2144891A43EA084343E72C
S214084BD03A4605E7334618E70A4666E7B040904285
S214084BE0B5D20CF1FF32002312E7334632460FE700
S214084BF09A458DD9ACF1020C23448AE7B9459AD96F
S214084C00023D274498E70346DEE79046C6E70238A3
S214084C10214435E74F4B00002E20000020576173D3
S214084C20200000004641494C0000000020457870EE
S214084C3065637465642000002D2D2D2D2D2D2D2DDA
S214084C402D2D2D2D2D2D2D2D2D2D2D2D2D2D2D00B4
S214084C50204661696C757265732000002049676E8E
S214084C606F7265642000000020546573747320001A
S214084C7050415353000000005042323720697320D9
S214084C806E6F7420696E697469616C697365640017
S214084C9050423237206973206E6F7420616E206F21
S214084CA0757470757400000050423236206973209F
S214084CB06E6F7420616E206F7574707574000000D6
S214084CC050423236206973206E6F742068696768B0
S214084CD00000000050423237206973206E6F74203F
S214084CE06869676800000000504232372069732000
S214084CF06E6F74206C6F7700436F6E736F6C6520F1
S214084D0072656164790A00003D3D3D3D3D3D3D3D8F
S214084D103D3D3D3D3D0A00002E2E2F746573742FD1
S214084D20746573744469676974616C494F2E6300CF
S214084D30746573745F6469676974616C44756550FB
S214084D40696E3133496E697469616C69736550724E
S214084D506F7065726C790000746573745F64696758
S214084D606974616C44756550696E3133497353656F
S214084D7074000000746573745F6469676974616CB5
S214084D8044756550696E31334973436C6561726565
S214084D9064000000746573745F6469676974616CA5
S214084DA044756550696E3232496E697469616C691A
S214084DB0736550726F7065726C79000074657374F1
S214084DC05F6469676974616C44756550696E3232F0
S214084DD04973536574000000746573745F6469678B
S214084DE06974616C44756550696E32324973436CF8
S214084DF06561726564000000746573745F64696752
S214084E006974616C44756550696E3133416E6432FD
S214084E1032496E697469616C69736550726F706542
S214084E20726C7900746573745F6469676974616C21
S214084E3044756550696E3133416E64323249735336
S214084E4065740000746573745F6469676974616C7F
S214084E5044756550696E31336973436C6561726574
S214084E6064416E643232497353657400430000002F
S214084E703801072030313233343536373839414235
S214084E804344454600000000303132333435363767
S214084E90383961626364656600000000286E756CC8
S214084EA06C29000030303030303030303030303020
S214084EB030303030202020202020202020202020A5
S214084EC020202020F8B500BFF8BC08BC9E467047D6
S214084ED0512D080019010800F8B500BFF8BC08BC39
S20C084EE09E467047F500080025
S20C084EE8FCF7FF7F0100000043
S214084EF04FF48063204A136002F5007213601F4B5C
S214084F001B6A13F0807F07D11D4A1C4B1A621A468B
S214084F10936E13F0010FFBD01A4A184B1A621A4602
S214084F20936E13F4803FFBD0144B1A6B22F00302E7
S214084F3042F001021A631A46936E13F0080FFBD06C
S214084F40114A0E4B9A621A46936E13F0020FFBD064
S214084F5011220A4B1A631A46936E13F0080FFBD0F9
S214084F601222064B1A631A46936E13F0080FFBD0EC
S214084F70064A074B1A607047000A0E4000060E40A5
S214084F800908370009083701013F0D2000BD010553
S214084F90300107201B4B984206D800231A4A136094
S214084FA002F5007213607047184B984207D84FF402
S214084FB08073154A136002F5007213607047144B2D
S214084FC0984207D84FF400730F4A136002F5007230
S214084FD0136070470F4B984207D84FF440730A4A3D
S214084FE0136002F50072136070470B4B984294BF2B
S214084FF04FF480634FF4A063034A136002F500720F
S21408500013607047BFEA2101000A0E407FF0FA02DB
S214085010FF8FD003FFB3C4047F4A5D05010000007C
S21408502000093D00000000000000000024040720DE
S2140850308C040720F404072000000000000000008D
S2140850400000000000000000000000000000000053
S2140850500000000000000000000000006C4E080081
S2140850600000000000000000000000000000000033
S2140850700000000000000000000000000000000023
S2140850800000000000000000000000000000000013
S2140850900000000000000000000000000000000003
S2140850A000000000000000000000000000000000F3
S2140850B000000000000000000000000000000000E3
S2140850C000000000000000000000000000000000D3
S2140850D001000000000000000E33CDAB34126DE670
S2140850E0ECDE05000B0000000000000000000000D9
S2140850F000000000000000000000000000000000A3
S2140851000000000000000000000000000000000092
S2140851100000000000000000000000000000000082
S2140851200000000000000000000000000000000072
S2140854503801072041534349490000000000000076
S214085460000000000000000000000000000000002F
S214085470000000000100000000000000000000001E
S214085480880507208805072090050720900507202F
S2140854909805072098050720A0050720A0050720DF
S2140854A0A8050720A8050720B0050720B00507208F
S2140854B0B8050720B8050720C0050720C00507203F
S2140854C0C8050720C8050720D0050720D0050720EF
S2140854D0D8050720D8050720E0050720E00507209F
S2140854E0E8050720E8050720F0050720F00507204F
S2140854F0F8050720F80507200006072000060720FD
S21408550008060720080607201006072010060720AA
S214085510180607201806072020060720200607205A
S214085520280607202806072030060720300607200A
S21408553038060720380607204006072040060720BA
S214085540480607204806072050060720500607206A
S214085550580607205806072060060720600607201A
S21408556068060720680607207006072070060720CA
S214085570780607207806072080060720800607207A
S214085580880607208806072090060720900607202A
S2140855909806072098060720A0060720A0060720DA
S2140855A0A8060720A8060720B0060720B00607208A
S2140855B0B8060720B8060720C0060720C00607203A
S2140855C0C8060720C8060720D0060720D0060720EA
S2140855D0D8060720D8060720E0060720E00607209A
S2140855E0E8060720E8060720F0060720F00607204A
S2140855F0F8060720F80607200007072000070720F8
S21408560008070720080707201007072010070720A5
S2140856101807072018070720200707202007072055
S2140856202807072028070720300707203007072005
S21408563038070720380707204007072040070720B5
S2140856404807072048070720500707205007072065
S2140856505807072058070720600707206007072015
S21408566068070720680707207007072070070720C5
S2140856707807072078070720800707208007072075
S2140856808807072088070720900707209007072025
S2140856909807072098070720A0070720A0070720D5
S2140856A0A8070720A8070720B0070720B007072085
S2140856B0B8070720B8070720C0070720C007072035
S2140856C0C8070720C8070720D0070720D0070720E5
S2140856D0D8070720D8070720E0070720E007072095
S2140856E0E8070720E8070720F0070720F007072045
S2140856F0F8070720F80707200008072000080720F3
S21408570008080720080807201008072010080720A0
S2140857101808072018080720200807202008072050
S2140857202808072028080720300807203008072000
S21408573038080720380807204008072040080720B0
S2140857404808072048080720500807205008072060
S2140857505808072058080720600807206008072010
S21408576068080720680807207008072070080720C0
S2140857707808072078080720800807208008072070
S2140857808808072088080720900807209008072020
S2140857909808072098080720A0080720A0080720D0
S2140857A0A8080720A8080720B0080720B008072080
S2140857B0B8080720B8080720C0080720C008072030
S2140857C0C8080720C8080720D0080720D0080720E0
S2140857D0D8080720D8080720E0080720E008072090
S2140857E0E8080720E8080720F0080720F008072040
S2140857F0F8080720F80807200009072000090720EE
S214085800080907200809072010090720100907209B
S214085810180907201809072020090720200907204B
S21408582028090720280907203009072030090720FB
S21408583038090720380907204009072040090720AB
S214085840480907204809072050090720500907205B
S214085850580907205809072060090720600907200B
S21408586068090720680907207009072070090720BB
S214085870780907207809072080090720800907206B
S21008588000000200FFFFFFFF19440800AC
S804081A4990
